:100000000C9461000C947E000C947E000C947E0095
:100010000C947E000C947E000C947E000C947E0068
:100020000C947E000C947E000C947E000C947E0058
:100030000C947E000C947E000C947E000C947E0048
:100040000C9489020C947E000C947E000C947E002B
:100050000C947E000C947E000C947E000C947E0028
:100060000C947E000C947E00000000002400270009
:100070002A0000000000250028002B0000000000DE
:1000800023002600290004040404040404040202DA
:100090000202020203030303030301020408102007
:1000A0004080010204081020010204081020000012
:1000B0000008000201000003040700000000000027
:1000C000000011241FBECFEFD8E0DEBFCDBF11E08E
:1000D000A0E0B1E0E4E4F7E002C005900D92A8349E
:1000E000B107D9F721E0A8E4B1E001C01D92A7351E
:1000F000B207E1F70E94D3020C94A0030C94000015
:10010000833081F028F4813099F08230A1F0089595
:100110008730A9F08830B9F08430D1F48091800024
:100120008F7D03C0809180008F7780938000089539
:1001300084B58F7702C084B58F7D84BD089580918A
:10014000B0008F7703C08091B0008F7D8093B000A6
:100150000895CF93DF93282F30E0F901E255FF4F48
:100160008491F901E656FF4FD491F901EA57FF4F08
:10017000C491CC2391F081110E948000EC2FF0E01B
:10018000EE0FFF1FE458FF4FA591B491EC91ED23C2
:1001900081E090E021F480E002C080E090E0DF9117
:1001A000CF9108951F93CF93DF93282F30E0F9016B
:1001B000E255FF4F8491F901E656FF4FD491F901C2
:1001C000EA57FF4FC491CC23C9F0162F81110E942A
:1001D0008000EC2FF0E0EE0FFF1FEE58FF4FA591CF
:1001E000B4918FB7F894111105C09C91ED2FE09553
:1001F000E92302C0EC91ED2BEC938FBFDF91CF91FF
:100200001F910895CF93DF9390E0FC01E656FF4FD6
:100210002491FC01EA57FF4F8491882361F190E01B
:10022000880F991FFC01E859FF4FC591D491FC013B
:10023000EE58FF4FA591B491611109C09FB7F89492
:100240008881209582238883EC912E230BC0623015
:1002500061F49FB7F8943881822F80958323888337
:10026000EC912E2B2C939FBF06C08FB7F894E8819A
:100270002E2B28838FBFDF91CF9108953FB7F8943D
:1002800080914E0190914F01A0915001B091510188
:1002900026B5A89B05C02F3F19F00196A11DB11DE1
:1002A0003FBFBA2FA92F982F8827820F911DA11D1C
:1002B000B11DBC01CD0142E0660F771F881F991F59
:1002C0004A95D1F708958F929F92AF92BF92CF92A5
:1002D000DF92EF92FF926B017C010E943E014B0185
:1002E0005C01C114D104E104F104F1F00E943E016B
:1002F000DC01CB0188199909AA09BB09883E934002
:10030000A105B10570F321E0C21AD108E108F10896
:1003100088EE880E83E0981EA11CB11CC114D10484
:10032000E104F10419F7DDCFFF90EF90DF90CF905B
:10033000BF90AF909F908F900895CF9387E0809368
:1003400000011092480161E083E00E94D20061E068
:1003500084E00E94D20061E082E00E94D200C7E007
:10036000809148018730C8F4E0915201CE9FF0019E
:100370001124E80FF11DEF5FFE4F608180910001B5
:100380000E94D200809100018F5F809300018091D4
:1003900048018F5F80934801E3CF60E085E00E94D1
:1003A000D20061E070E080E090E0CF910C946301B6
:1003B000CF9387E0809300011092480161E083E0D1
:1003C0000E94D20061E085E00E94D20061E082E0FC
:1003D0000E94D200C7E0809148018730C8F4E091C4
:1003E0005301CE9FF0011124E80FF11DEF5FFE4F86
:1003F0006081809100010E94D200809100018F5F96
:1004000080930001809148018F5F80934801E3CF82
:1004100060E084E00E94D20061E070E080E090E063
:10042000CF910C946301CF9387E0809300011092E9
:10043000480161E085E00E94D20061E082E00E9414
:10044000D20061E084E00E94D200C7E080914801C0
:100450008730C8F4E0915401CE9FF0011124E80FD9
:10046000F11DEF5FFE4F6081809100010E94D2007C
:10047000809100018F5F80930001809148018F5F20
:1004800080934801E3CF60E083E00E94D20061E006
:1004900070E080E090E0CF910C946301CF9387E00F
:1004A000809300011092480161E085E00E94D20033
:1004B00061E083E00E94D20061E084E00E94D2000B
:1004C000C7E0809148018730C8F4E0915501CE9F84
:1004D000F0011124E80FF11DEF5FFE4F6081809164
:1004E00000010E94D200809100018F5F8093000183
:1004F000809148018F5F80934801E3CF60E082E004
:100500000E94D20062E070E080E090E0CF910C9415
:1005100063011F920F920FB60F9211242F933F93F6
:100520008F939F93AF93BF9380914A0190914B011A
:10053000A0914C01B0914D013091490123E0230F6E
:100540002D3720F40196A11DB11D05C026E8230F0B
:100550000296A11DB11D2093490180934A019093F9
:100560004B01A0934C01B0934D0180914E019091AD
:100570004F01A0915001B09151010196A11DB11DF3
:1005800080934E0190934F01A0935001B09351017D
:10059000BF91AF919F918F913F912F910F900FBE7F
:1005A0000F901F901895789484B5826084BD84B5AF
:1005B000816084BD85B5826085BD85B5816085BD5E
:1005C00080916E00816080936E0010928100809116
:1005D000810082608093810080918100816080939E
:1005E0008100809180008160809380008091B100C3
:1005F00084608093B1008091B00081608093B000EE
:1006000080917A00846080937A0080917A00826081
:1006100080937A0080917A00816080937A00809143
:100620007A00806880937A001092C100C1E061E096
:100630008C2F0E940201CF5FCE30C9F760E080E0CE
:100640000E94020160E081E00E94020110925501C7
:10065000109254011092530110925201C0E0D0E068
:1006600019E000E0003350F40E944E020E94130291
:100670000E94D8010E949D010F5FF4CF80E00E948C
:10068000A90081E00E94A90080E00E94A900892BB6
:1006900021F481E08093560107C081E00E94A90007
:1006A000892B11F4109256019091560180915501B9
:1006B0009130D1F48F5F8A3018F4809355013AC09D
:1006C00010925501809154018F5F8A3000F1109291
:1006D0005401809153018F5F8A3010F110925301C1
:1006E000809152018F5F24C0815080935501811108
:1006F00021C00E944E020E9413020E94D8010E9453
:100700009D011093550180915401815019F08093FF
:10071000540110C01093540180915301815019F07D
:100720008093530107C0109353018091520181506F
:1007300080935201209709F494CF0E94000091CF3A
:04074000F894FFCF5B
:100744000700010101010101000000000101000195
:10075400000101000101010000010101010101008A
:100764000001010001010001010001010101010179
:10077400000100000000010101010101010101016A
:08078400010100010101010067
:00000001FF
